{
  "contractName": "NFTBulkTransfer",
  "abi": [
    {
      "inputs": [
        {
          "internalType": "address",
          "name": "nftAddress",
          "type": "address"
        },
        {
          "internalType": "uint256",
          "name": "startingRange",
          "type": "uint256"
        },
        {
          "internalType": "uint256",
          "name": "endingRange",
          "type": "uint256"
        },
        {
          "internalType": "address",
          "name": "receiver",
          "type": "address"
        }
      ],
      "name": "bulkTransferNFT",
      "outputs": [],
      "stateMutability": "nonpayable",
      "type": "function"
    }
  ],
  "bytecode": "0x608060405234801561000f575f80fd5b506104888061001d5f395ff3fe608060405234801561000f575f80fd5b5060043610610029575f3560e01c8063af3fa7211461002d575b5f80fd5b61004760048036038101906100429190610257565b610049565b005b82821161008b576040517f08c379a000000000000000000000000000000000000000000000000000000000815260040161008290610315565b60405180910390fd5b5f8390505b8281116101bf573373ffffffffffffffffffffffffffffffffffffffff168573ffffffffffffffffffffffffffffffffffffffff16636352211e836040518263ffffffff1660e01b81526004016100e79190610342565b602060405180830381865afa158015610102573d5f803e3d5ffd5b505050506040513d601f19601f82011682018060405250810190610126919061036f565b73ffffffffffffffffffffffffffffffffffffffff16036101ac578473ffffffffffffffffffffffffffffffffffffffff166323b872dd3384846040518463ffffffff1660e01b815260040161017e939291906103a9565b5f604051808303815f87803b158015610195575f80fd5b505af11580156101a7573d5f803e3d5ffd5b505050505b80806101b79061040b565b915050610090565b5050505050565b5f80fd5b5f73ffffffffffffffffffffffffffffffffffffffff82169050919050565b5f6101f3826101ca565b9050919050565b610203816101e9565b811461020d575f80fd5b50565b5f8135905061021e816101fa565b92915050565b5f819050919050565b61023681610224565b8114610240575f80fd5b50565b5f813590506102518161022d565b92915050565b5f805f806080858703121561026f5761026e6101c6565b5b5f61027c87828801610210565b945050602061028d87828801610243565b935050604061029e87828801610243565b92505060606102af87828801610210565b91505092959194509250565b5f82825260208201905092915050565b7f496e76616c69642072616e6765000000000000000000000000000000000000005f82015250565b5f6102ff600d836102bb565b915061030a826102cb565b602082019050919050565b5f6020820190508181035f83015261032c816102f3565b9050919050565b61033c81610224565b82525050565b5f6020820190506103555f830184610333565b92915050565b5f81519050610369816101fa565b92915050565b5f60208284031215610384576103836101c6565b5b5f6103918482850161035b565b91505092915050565b6103a3816101e9565b82525050565b5f6060820190506103bc5f83018661039a565b6103c9602083018561039a565b6103d66040830184610333565b949350505050565b7f4e487b71000000000000000000000000000000000000000000000000000000005f52601160045260245ffd5b5f61041582610224565b91507fffffffffffffffffffffffffffffffffffffffffffffffffffffffffffffffff8203610447576104466103de565b5b60018201905091905056fea26469706673582212202ba7e5f0374056360c9f96787a734ae1ddbfb8c457adab7f19c070f39fa2edbc64736f6c63430008180033",
  "immutableReferences": {},
  "source": "// SPDX-License-Identifier: MIT\r\npragma solidity ^0.8.0;\r\n\r\nimport \"@openzeppelin/contracts/token/ERC721/IERC721.sol\";\r\n\r\ncontract NFTBulkTransfer {\r\n    function bulkTransferNFT(\r\n        address nftAddress,\r\n        uint256 startingRange,\r\n        uint256 endingRange,\r\n        address receiver\r\n    ) external {\r\n        // Check if ending range is greater than starting range\r\n        require(endingRange > startingRange, \"Invalid range\");\r\n\r\n        for (uint256 tokenId = startingRange; tokenId <= endingRange; tokenId++) {\r\n            // Skip if the sender doesn't own the NFT\r\n            if (IERC721(nftAddress).ownerOf(tokenId) != msg.sender) {\r\n                continue;\r\n            }\r\n\r\n            // Transfer the NFT to the receiver\r\n            IERC721(nftAddress).transferFrom(msg.sender, receiver, tokenId);\r\n        }\r\n    }\r\n}\r\n",
  "sourcePath": "C:\\study\\spearmint\\nft_bulk_transfer\\contracts\\NFTBulkTransfer.sol",
  "compiler": {
    "name": "solc",
    "version": "0.8.24+commit.e11b9ed9.Emscripten.clang"
  },
  "schemaVersion": "3.4.16",
  "updatedAt": "2024-02-15T15:38:11.629Z",
  "networkType": "ethereum",
  "devdoc": {
    "kind": "dev",
    "methods": {},
    "version": 1
  },
  "userdoc": {
    "kind": "user",
    "methods": {},
    "version": 1
  }
}